{
  "contractName": "MyContract",
  "abi": [
    {
      "anonymous": false,
      "inputs": [
        {
          "indexed": false,
          "internalType": "address",
          "name": "sender",
          "type": "address"
        },
        {
          "indexed": false,
          "internalType": "uint256",
          "name": "value",
          "type": "uint256"
        },
        {
          "indexed": false,
          "internalType": "uint256",
          "name": "data",
          "type": "uint256"
        },
        {
          "indexed": false,
          "internalType": "uint256",
          "name": "num",
          "type": "uint256"
        }
      ],
      "name": "Data",
      "type": "event"
    },
    {
      "anonymous": false,
      "inputs": [
        {
          "indexed": false,
          "internalType": "uint256",
          "name": "data",
          "type": "uint256"
        },
        {
          "indexed": false,
          "internalType": "uint256",
          "name": "num",
          "type": "uint256"
        }
      ],
      "name": "Data2",
      "type": "event"
    },
    {
      "constant": true,
      "inputs": [],
      "name": "data",
      "outputs": [
        {
          "internalType": "uint256",
          "name": "",
          "type": "uint256"
        }
      ],
      "payable": false,
      "stateMutability": "view",
      "type": "function"
    },
    {
      "constant": true,
      "inputs": [],
      "name": "data2",
      "outputs": [
        {
          "internalType": "uint256",
          "name": "",
          "type": "uint256"
        }
      ],
      "payable": false,
      "stateMutability": "view",
      "type": "function"
    },
    {
      "constant": false,
      "inputs": [
        {
          "internalType": "uint256",
          "name": "num",
          "type": "uint256"
        }
      ],
      "name": "setData",
      "outputs": [],
      "payable": true,
      "stateMutability": "payable",
      "type": "function"
    },
    {
      "constant": false,
      "inputs": [
        {
          "internalType": "uint256",
          "name": "num",
          "type": "uint256"
        }
      ],
      "name": "setData2",
      "outputs": [],
      "payable": false,
      "stateMutability": "nonpayable",
      "type": "function"
    }
  ],
  "bytecode": "0x608060405234801561001057600080fd5b50610216806100206000396000f3fe60806040526004361061003f5760003560e01c806301d61e5d146100445780635b4b73a91461007f57806373d4a13a146100ad578063e3a7fd75146100d8575b600080fd5b34801561005057600080fd5b5061007d6004803603602081101561006757600080fd5b8101908080359060200190929190505050610103565b005b6100ab6004803603602081101561009557600080fd5b810190808035906020019092919050505061014e565b005b3480156100b957600080fd5b506100c26101d5565b6040518082815260200191505060405180910390f35b3480156100e457600080fd5b506100ed6101db565b6040518082815260200191505060405180910390f35b7fc5f0ddee070cbd7ac2cae86819f64e84ec72068aaf86d2910d77bb875e0e7e7b60005482604051808381526020018281526020019250505060405180910390a18060018190555050565b7f48b9d8452d5ac3b6225a5c4ac8fd5abb8305ba79dcde258a846f622489246427333460005484604051808573ffffffffffffffffffffffffffffffffffffffff1673ffffffffffffffffffffffffffffffffffffffff16815260200184815260200183815260200182815260200194505050505060405180910390a18060008190555050565b60005481565b6001548156fea265627a7a7231582091075d138dd74094eab6bd281836d619276bb4b7256c2ba98a3807b7d196697364736f6c63430005100032",
  "source": "// SPDX-License-Identifier: MIT\npragma solidity >=0.4.22 <0.9.0;\n\ncontract MyContract{\n\n    uint public data;\n    uint public data2;\n\n    event Data(address sender, uint value, uint data, uint num);\n    event Data2(uint data, uint num);\n\n\n    function setData(uint num) external payable{\n        emit Data(msg.sender, msg.value, data, num);\n        data = num;\n    }\n\n    function setData2(uint num) external{\n        emit Data2(data, num);\n        data2 = num;\n    }\n}",
  "sourcePath": "/home/sulaman/Documents/BlockchainProjects/abc/server/contracts/MyContract.sol",
  "compiler": {
    "name": "solc",
    "version": "0.5.16+commit.9c3226ce.Emscripten.clang"
  },
  "schemaVersion": "3.4.1",
  "updatedAt": "2021-08-07T18:57:17.997Z",
  "networkType": "ethereum",
  "devdoc": {
    "methods": {}
  },
  "userdoc": {
    "methods": {}
  }
}